{
    "_format": "hh-sol-artifact-1",
    "contractName": "BiddingContract",
    "sourceName": "contracts/ItemBidding.sol",
    "abi": [
        {
            "inputs": [],
            "name": "bidAmount",
            "outputs": [
                {
                    "internalType": "uint256",
                    "name": "",
                    "type": "uint256"
                }
            ],
            "stateMutability": "view",
            "type": "function"
        },
        {
            "inputs": [],
            "name": "determineEligibility",
            "outputs": [],
            "stateMutability": "nonpayable",
            "type": "function"
        },
        {
            "inputs": [],
            "name": "eligible",
            "outputs": [
                {
                    "internalType": "bool",
                    "name": "",
                    "type": "bool"
                }
            ],
            "stateMutability": "view",
            "type": "function"
        },
        {
            "inputs": [],
            "name": "name",
            "outputs": [
                {
                    "internalType": "string",
                    "name": "",
                    "type": "string"
                }
            ],
            "stateMutability": "view",
            "type": "function"
        },
        {
            "inputs": [
                {
                    "internalType": "uint256",
                    "name": "x",
                    "type": "uint256"
                }
            ],
            "name": "setBidAmount",
            "outputs": [],
            "stateMutability": "nonpayable",
            "type": "function"
        },
        {
            "inputs": [
                {
                    "internalType": "string",
                    "name": "nm",
                    "type": "string"
                }
            ],
            "name": "setItemName",
            "outputs": [],
            "stateMutability": "nonpayable",
            "type": "function"
        }
    ],
    "bytecode": "0x60806040526040518060200160405280600081525060009081620000249190620002b3565b503480156200003257600080fd5b506200039a565b600081519050919050565b7f4e487b7100000000000000000000000000000000000000000000000000000000600052604160045260246000fd5b7f4e487b7100000000000000000000000000000000000000000000000000000000600052602260045260246000fd5b60006002820490506001821680620000bb57607f821691505b602082108103620000d157620000d062000073565b5b50919050565b60008190508160005260206000209050919050565b60006020601f8301049050919050565b600082821b905092915050565b6000600883026200013b7fffffffffffffffffffffffffffffffffffffffffffffffffffffffffffffffff82620000fc565b620001478683620000fc565b95508019841693508086168417925050509392505050565b6000819050919050565b6000819050919050565b6000620001946200018e62000188846200015f565b62000169565b6200015f565b9050919050565b6000819050919050565b620001b08362000173565b620001c8620001bf826200019b565b84845462000109565b825550505050565b600090565b620001df620001d0565b620001ec818484620001a5565b505050565b5b81811015620002145762000208600082620001d5565b600181019050620001f2565b5050565b601f82111562000263576200022d81620000d7565b6200023884620000ec565b8101602085101562000248578190505b620002606200025785620000ec565b830182620001f1565b50505b505050565b600082821c905092915050565b6000620002886000198460080262000268565b1980831691505092915050565b6000620002a3838362000275565b9150826002028217905092915050565b620002be8262000039565b67ffffffffffffffff811115620002da57620002d962000044565b5b620002e68254620000a2565b620002f382828562000218565b600060209050601f8311600181146200032b576000841562000316578287015190505b62000322858262000295565b86555062000392565b601f1984166200033b86620000d7565b60005b8281101562000365578489015182556001820191506020850194506020810190506200033e565b8683101562000385578489015162000381601f89168262000275565b8355505b6001600288020188555050505b505050505050565b61082a80620003aa6000396000f3fe608060405234801561001057600080fd5b50600436106100625760003560e01c806306fdde031461006757806335a00701146100855780639554d3f5146100a157806396895a77146100bd578063aec2393b146100c7578063d832d92f146100e5575b600080fd5b61006f610103565b60405161007c919061029f565b60405180910390f35b61009f600480360381019061009a919061040a565b610191565b005b6100bb60048036038101906100b69190610489565b6101a4565b005b6100c56101ae565b005b6100cf6101f6565b6040516100dc91906104c5565b60405180910390f35b6100ed6101fc565b6040516100fa91906104fb565b60405180910390f35b6000805461011090610545565b80601f016020809104026020016040519081016040528092919081815260200182805461013c90610545565b80156101895780601f1061015e57610100808354040283529160200191610189565b820191906000526020600020905b81548152906001019060200180831161016c57829003601f168201915b505050505081565b80600090816101a09190610722565b5050565b8060018190555050565b600a600154106101d8576001600260006101000a81548160ff0219169083151502179055506101f4565b6000600260006101000a81548160ff0219169083151502179055505b565b60015481565b600260009054906101000a900460ff1681565b600081519050919050565b600082825260208201905092915050565b60005b8381101561024957808201518184015260208101905061022e565b60008484015250505050565b6000601f19601f8301169050919050565b60006102718261020f565b61027b818561021a565b935061028b81856020860161022b565b61029481610255565b840191505092915050565b600060208201905081810360008301526102b98184610266565b905092915050565b6000604051905090565b600080fd5b600080fd5b600080fd5b600080fd5b7f4e487b7100000000000000000000000000000000000000000000000000000000600052604160045260246000fd5b61031782610255565b810181811067ffffffffffffffff82111715610336576103356102df565b5b80604052505050565b60006103496102c1565b9050610355828261030e565b919050565b600067ffffffffffffffff821115610375576103746102df565b5b61037e82610255565b9050602081019050919050565b82818337600083830152505050565b60006103ad6103a88461035a565b61033f565b9050828152602081018484840111156103c9576103c86102da565b5b6103d484828561038b565b509392505050565b600082601f8301126103f1576103f06102d5565b5b813561040184826020860161039a565b91505092915050565b6000602082840312156104205761041f6102cb565b5b600082013567ffffffffffffffff81111561043e5761043d6102d0565b5b61044a848285016103dc565b91505092915050565b6000819050919050565b61046681610453565b811461047157600080fd5b50565b6000813590506104838161045d565b92915050565b60006020828403121561049f5761049e6102cb565b5b60006104ad84828501610474565b91505092915050565b6104bf81610453565b82525050565b60006020820190506104da60008301846104b6565b92915050565b60008115159050919050565b6104f5816104e0565b82525050565b600060208201905061051060008301846104ec565b92915050565b7f4e487b7100000000000000000000000000000000000000000000000000000000600052602260045260246000fd5b6000600282049050600182168061055d57607f821691505b6020821081036105705761056f610516565b5b50919050565b60008190508160005260206000209050919050565b60006020601f8301049050919050565b600082821b905092915050565b6000600883026105d87fffffffffffffffffffffffffffffffffffffffffffffffffffffffffffffffff8261059b565b6105e2868361059b565b95508019841693508086168417925050509392505050565b6000819050919050565b600061061f61061a61061584610453565b6105fa565b610453565b9050919050565b6000819050919050565b61063983610604565b61064d61064582610626565b8484546105a8565b825550505050565b600090565b610662610655565b61066d818484610630565b505050565b5b818110156106915761068660008261065a565b600181019050610673565b5050565b601f8211156106d6576106a781610576565b6106b08461058b565b810160208510156106bf578190505b6106d36106cb8561058b565b830182610672565b50505b505050565b600082821c905092915050565b60006106f9600019846008026106db565b1980831691505092915050565b600061071283836106e8565b9150826002028217905092915050565b61072b8261020f565b67ffffffffffffffff811115610744576107436102df565b5b61074e8254610545565b610759828285610695565b600060209050601f83116001811461078c576000841561077a578287015190505b6107848582610706565b8655506107ec565b601f19841661079a86610576565b60005b828110156107c25784890151825560018201915060208501945060208101905061079d565b868310156107df57848901516107db601f8916826106e8565b8355505b6001600288020188555050505b50505050505056fea2646970667358221220ee63c9209a2c40cc47c187b923d7147476080f2dbd558d8063c4b268ca4558ad64736f6c63430008110033",
    "linkReferences": {},
    "deployedLinkReferences": {}
}